:0300000002050AEC
:0C050A00787FE4F6D8FD75811F020551D2
:0B068C00303132333435363738390056
:10066A00021A000002080000020A0000020C000040
:04067A00020E00016B
:0A064600C2B48F80D2B47F027E00A0
:10065000EF1FAA0670011E4A600FE4FDEDC3947DF2
:090660007480948050EA0D80F3CF
:01066900226E
:08000300C2B5120646C2B42288
:1005FD00E4FDFCFFFE1204FEAE12AF137D0A1205E0
:10060D00A8748C2FF58274063EF583E493FF1206D1
:10061D003E7D017C00E4FFFE1204FEAE12AF137DA1
:10062D000A1205A8748C2DF58274063CF583E493AB
:01063D00FFBD
:08063E00D2B5120646C2B42237
:10046A007D057C007F017E001204FE7F6112063E3C
:10047A007D067F017E001204FE7F6C12063E7D0718
:10048A007F017E001204FE7F6112063E7D087F0115
:10049A007E001204FE7F7212063E7D097F017E00F5
:1004AA001204FE7F6D12063E7D0A7F017E00120451
:1004BA00FE7F2012063E7D0B7F017E001204FE7F26
:1004CA006312063E7D0C7F017E001204FE7F6C12D1
:1004DA00063E7D0D7F017E001204FE7F6F12063EEE
:1004EA007D0E7F017E001204FE7F6312063E7D0FA1
:0404FA007F017E0000
:0C04FE00EF75F040A424802DFF020003E5
:1003AD00E4F516F517F514F515F512F513F518F521
:1003BD0019F510F511C2B47F381200037F0C12002D
:1003CD00037F061200037F01120003758902758CED
:1003DD0006758A06D2AFD2A9D28C1205FD7D027C9C
:1003ED0000E4FFFE1204FE7F3A12063E7D03E4FF99
:1003FD00FE1204FEAE14AF157D0A1205A8748C2FE3
:10040D00F58274063E1206397D047C00E4FFFE126F
:10041D0004FEAE14AF1512062C7D057C00E4FFFE24
:10042D001204FE7F3A12063E7D06E4FFFE1204FE24
:10043D00AE16AF177D0A1205A8748C2FF5827406BF
:10044D003E1206397D077C00E4FFFE1204FEAE1657
:0D045D00AF1712062C12046A7F6B02063ED8
:1002A300E4FBEBC3943C7480948040030203A5E514
:1002B30090548070030203A57D057C001204FA7F2D
:1002C3006C12063E7D061204FA7F6912063E7D0714
:1002D3001204FA7F6E12063E7D081204FA7F67123B
:1002E300063E7D091204FA7F2112063E7D0A12049E
:1002F300FA7F2012063E7D0B1204FA7F6C12063E33
:100303007D0C1204FA7F6912063E7D0D1204FA7FFA
:100313006E12063E7D0E1204FA7F671204F57F21EA
:1003230012063EC2A37FF47E011206507D0512041D
:10033300FA7F2012063E7D061204FA7F2012063E43
:100343007D071204FA7F2012063E7D081204FA7F0D
:100353002012063E7D091204FA7F2012063E7D0A12
:100363001204FA7F2012063E7D0B1204FA7F20123C
:10037300063E7D0C1204FA7F2012063E7D0D120408
:10038300FA7F2012063E7D0E1204FA7F201204F536
:100393007F2012063ED2A37FF47E011206500B0289
:0A03A30002A512046A7F6B02063EF9
:10000E0020B65D7F037E0012065020B6500519E51E
:10001E001970020518E5187044E51924FE601D14C8
:10002E00601E14602724037034C28C7D017C00E4B2
:10003E00FFFE1204FE7F0F12000380217D0480025A
:10004E007D077C00E4FFFE1204FE8011E4F518F536
:10005E00197F0C120003D28CE4F50EF50F30B6FDAD
:10006E00E5194518700302018530B7030201857F3B
:10007E00037E0012065030B703020182E5186003BA
:10008E0002017DE51924FE6056147003020131143D
:10009E0070030201782403600302017D0509E5095E
:1000AE0070020508FFAE087C007D181205A88C08AA
:1000BE008D09E4FDFCFFFE1204FEAE08AF097D0AB9
:1000CE001205A8748C2FF58274063E1206397D0136
:1000DE007C00E4FFFE1204FEAE08AF0902017305B8
:1000EE000BE50B7002050AFFAE0A7C007D3C120583
:1000FE00A88C0A8D0B7D037C00E4FFFE1204FEAE7D
:10010E000AAF0B7D0A1205A8748C2FF58274063E79
:10011E001206397D047C00E4FFFE1204FEAE0AAF27
:10012E000B8042050DE50D7002050CFFAE0C7C0038
:10013E007D3C1205A88C0C8D0D7D067C00E4FFFE27
:10014E001204FEAE0CAF0D7D0A1205A8748C2FF5AD
:10015E008274063E1206397D077C00E4FFFE12040F
:10016E00FEAE0CAF0D12062C8005E4F50EF50F7FDA
:08017E001012000330B7FD224E
:10018600E4F51CF51DF51EF51FC2A31203ADE4F53B
:100196000CF50DF50AF50BF508F509E50F450E60AA
:1001A6000512000E80F5E4F51CF51DAE0AAF0BFC3A
:1001B6007D3C120596AA06AB07AE08AF097C0E7DFC
:1001C60010120596EF2BFFEE3AFEE50D2FF51FE513
:1001D6000C3EF51E1203ADE511B466FBE510B40E38
:1001E600F6E4F510F5110517E51770020516051D5D
:1001F600E51D7002051CB51F10E51CB51E0B12028D
:10020600A3750E00750F018080E517643C451670D6
:100216005AF516F5170515E51570020514643C45E3
:10022600147019F514F5150513E51370020512641B
:100236001845127004F512F5131205FD7D037C00B6
:10024600E4FFFE1204FEAE14AF157D0A1205A87473
:100256008C2FF58274063E1206397D047C00E4FF7D
:10026600FE1204FEAE14AF1512062C7D067C00E4C9
:10027600FFFE1204FEAE16AF177D0A1205A8748C97
:100286002FF58274063E1206397D077C00E4FFFED8
:0D0296001204FEAE16AF1712062C0201DD99
:03000B0002067F6B
:0D067F00C0E00511E51170020510D0E03259
:10051600020186E493A3F8E493A34003F68001F274
:1005260008DFF48029E493A3F85407240CC8C333E6
:10053600C4540F4420C8834004F456800146F6DFB5
:10054600E4800B010204081020408090066AE47ED5
:10055600019360BCA3FF543F30E509541FFEE493AA
:10056600A360010ECF54C025E060A840B8E493A371
:10057600FAE493A3F8E493A3C8C582C8CAC583CA9C
:10058600F0A3C8C582C8CAC583CADFE9DEE780BE54
:01067E00007B
:10059600EF8DF0A4A8F0CF8CF0A428CE8DF0A42E79
:0205A600FE2233
:1005A800BC000BBE0029EF8DF084FFADF022E4CC37
:1005B800F875F008EF2FFFEE33FEEC33FCEE9DEC00
:1005C800984005FCEE9DFE0FD5F0E9E4CEFD22ED46
:1005D800F8F5F0EE8420D21CFEADF075F008EF2F90
:1005E800FFED33FD4007985006D5F0F222C398FD81
:0505F8000FD5F0EA221E
:00000001FF
